{
  "_format": "hh-sol-artifact-1",
  "contractName": "RockPaperScissors",
  "sourceName": "contracts/RockPaperScissors.sol",
  "abi": [
    {
      "inputs": [
        {
          "internalType": "address",
          "name": "_token",
          "type": "address"
        }
      ],
      "stateMutability": "nonpayable",
      "type": "constructor"
    },
    {
      "anonymous": false,
      "inputs": [
        {
          "indexed": false,
          "internalType": "address",
          "name": "_player1",
          "type": "address"
        },
        {
          "indexed": false,
          "internalType": "address",
          "name": "_player2",
          "type": "address"
        },
        {
          "indexed": false,
          "internalType": "uint256",
          "name": "limitTime",
          "type": "uint256"
        }
      ],
      "name": "AcceptGame",
      "type": "event"
    },
    {
      "anonymous": false,
      "inputs": [
        {
          "indexed": false,
          "internalType": "address",
          "name": "_player1",
          "type": "address"
        },
        {
          "indexed": false,
          "internalType": "address",
          "name": "_player2",
          "type": "address"
        },
        {
          "indexed": false,
          "internalType": "enum RockPaperScissors.Status",
          "name": "_status",
          "type": "uint8"
        }
      ],
      "name": "CancelGame",
      "type": "event"
    },
    {
      "anonymous": false,
      "inputs": [
        {
          "indexed": false,
          "internalType": "address",
          "name": "_player1",
          "type": "address"
        },
        {
          "indexed": false,
          "internalType": "address",
          "name": "_player2",
          "type": "address"
        },
        {
          "indexed": false,
          "internalType": "enum RockPaperScissors.Choice",
          "name": "_player1Choice",
          "type": "uint8"
        },
        {
          "indexed": false,
          "internalType": "enum RockPaperScissors.Choice",
          "name": "_player2Choice",
          "type": "uint8"
        },
        {
          "indexed": false,
          "internalType": "uint256",
          "name": "_bet",
          "type": "uint256"
        },
        {
          "indexed": false,
          "internalType": "enum RockPaperScissors.Result",
          "name": "_result",
          "type": "uint8"
        }
      ],
      "name": "FinishGame",
      "type": "event"
    },
    {
      "anonymous": false,
      "inputs": [
        {
          "indexed": false,
          "internalType": "address",
          "name": "_player1",
          "type": "address"
        },
        {
          "indexed": false,
          "internalType": "address",
          "name": "_player2",
          "type": "address"
        },
        {
          "indexed": false,
          "internalType": "uint256",
          "name": "_bet",
          "type": "uint256"
        }
      ],
      "name": "StartGame",
      "type": "event"
    },
    {
      "inputs": [
        {
          "internalType": "address",
          "name": "_opponent",
          "type": "address"
        },
        {
          "internalType": "enum RockPaperScissors.Choice",
          "name": "_selection",
          "type": "uint8"
        },
        {
          "internalType": "bool",
          "name": "_useEarnings",
          "type": "bool"
        }
      ],
      "name": "acceptGame",
      "outputs": [],
      "stateMutability": "nonpayable",
      "type": "function"
    },
    {
      "inputs": [
        {
          "internalType": "address",
          "name": "_opponent",
          "type": "address"
        }
      ],
      "name": "cancelGame",
      "outputs": [],
      "stateMutability": "nonpayable",
      "type": "function"
    },
    {
      "inputs": [
        {
          "internalType": "address",
          "name": "_opponent",
          "type": "address"
        }
      ],
      "name": "claimGame",
      "outputs": [],
      "stateMutability": "nonpayable",
      "type": "function"
    },
    {
      "inputs": [
        {
          "internalType": "address",
          "name": "_opponent",
          "type": "address"
        },
        {
          "internalType": "enum RockPaperScissors.Choice",
          "name": "_selection",
          "type": "uint8"
        },
        {
          "internalType": "string",
          "name": "_secret",
          "type": "string"
        }
      ],
      "name": "finishGame",
      "outputs": [],
      "stateMutability": "nonpayable",
      "type": "function"
    },
    {
      "inputs": [
        {
          "internalType": "enum RockPaperScissors.Choice",
          "name": "_selection",
          "type": "uint8"
        },
        {
          "internalType": "string",
          "name": "_secret",
          "type": "string"
        }
      ],
      "name": "getHash",
      "outputs": [
        {
          "internalType": "bytes32",
          "name": "",
          "type": "bytes32"
        }
      ],
      "stateMutability": "view",
      "type": "function"
    },
    {
      "inputs": [],
      "name": "getMyEarnings",
      "outputs": [
        {
          "internalType": "uint256",
          "name": "",
          "type": "uint256"
        }
      ],
      "stateMutability": "view",
      "type": "function"
    },
    {
      "inputs": [
        {
          "internalType": "uint256",
          "name": "_bet",
          "type": "uint256"
        },
        {
          "internalType": "bool",
          "name": "_useEarnings",
          "type": "bool"
        },
        {
          "internalType": "address",
          "name": "_opponent",
          "type": "address"
        },
        {
          "internalType": "bytes32",
          "name": "_selection",
          "type": "bytes32"
        }
      ],
      "name": "startGame",
      "outputs": [],
      "stateMutability": "nonpayable",
      "type": "function"
    },
    {
      "inputs": [],
      "name": "withdrawEarnings",
      "outputs": [],
      "stateMutability": "nonpayable",
      "type": "function"
    }
  ],
  "bytecode": "0x60806040523480156200001157600080fd5b5060405162004f3638038062004f36833981810160405281019062000037919062000095565b806000806101000a81548173ffffffffffffffffffffffffffffffffffffffff021916908373ffffffffffffffffffffffffffffffffffffffff160217905550506200010f565b6000815190506200008f81620000f5565b92915050565b600060208284031215620000a857600080fd5b6000620000b8848285016200007e565b91505092915050565b6000620000ce82620000d5565b9050919050565b600073ffffffffffffffffffffffffffffffffffffffff82169050919050565b6200010081620000c1565b81146200010c57600080fd5b50565b614e17806200011f6000396000f3fe608060405234801561001057600080fd5b50600436106100885760003560e01c8063874a86a21161005b578063874a86a214610113578063b73c6ce91461012f578063dbbd2aa214610139578063f82b776f1461015557610088565b806322754d8b1461008d5780635abb37d6146100ab578063712a624f146100c75780637b352f7c146100e3575b600080fd5b610095610171565b6040516100a291906147be565b60405180910390f35b6100c560048036038101906100c091906141d3565b6101b8565b005b6100e160048036038101906100dc919061424b565b6104c7565b005b6100fd60048036038101906100f891906142db565b612095565b60405161010a91906146c3565b60405180910390f35b61012d600480360381019061012891906141fc565b6120ca565b005b610137612ece565b005b610153600480360381019061014e9190614358565b613084565b005b61016f600480360381019061016a91906141d3565b613bea565b005b6000600260003373ffffffffffffffffffffffffffffffffffffffff1673ffffffffffffffffffffffffffffffffffffffff16815260200190815260200160002054905090565b600160038111156101f2577f4e487b7100000000000000000000000000000000000000000000000000000000600052602160045260246000fd5b600160003373ffffffffffffffffffffffffffffffffffffffff1673ffffffffffffffffffffffffffffffffffffffff16815260200190815260200160002060008373ffffffffffffffffffffffffffffffffffffffff1673ffffffffffffffffffffffffffffffffffffffff16815260200190815260200160002060020160019054906101000a900460ff1660038111156102b7577f4e487b7100000000000000000000000000000000000000000000000000000000600052602160045260246000fd5b146102f7576040517f08c379a00000000000000000000000000000000000000000000000000000000081526004016102ee9061471e565b60405180910390fd5b600160003373ffffffffffffffffffffffffffffffffffffffff1673ffffffffffffffffffffffffffffffffffffffff16815260200190815260200160002060008273ffffffffffffffffffffffffffffffffffffffff1673ffffffffffffffffffffffffffffffffffffffff16815260200190815260200160002060030154600260003373ffffffffffffffffffffffffffffffffffffffff1673ffffffffffffffffffffffffffffffffffffffff168152602001908152602001600020819055506000600160003373ffffffffffffffffffffffffffffffffffffffff1673ffffffffffffffffffffffffffffffffffffffff16815260200190815260200160002060008373ffffffffffffffffffffffffffffffffffffffff1673ffffffffffffffffffffffffffffffffffffffff16815260200190815260200160002060020160016101000a81548160ff02191690836003811115610483577f4e487b7100000000000000000000000000000000000000000000000000000000600052602160045260246000fd5b02179055507fac62586bd26dd425e89afa8ecaed72032ca2de8a9e4f980fad85bdba8cc1fa0d338260006040516104bc9392919061462c565b60405180910390a150565b60016003811115610501577f4e487b7100000000000000000000000000000000000000000000000000000000600052602160045260246000fd5b82600381111561053a577f4e487b7100000000000000000000000000000000000000000000000000000000600052602160045260246000fd5b14806105b657506002600381111561057b577f4e487b7100000000000000000000000000000000000000000000000000000000600052602160045260246000fd5b8260038111156105b4577f4e487b7100000000000000000000000000000000000000000000000000000000600052602160045260246000fd5b145b8061063057506003808111156105f5577f4e487b7100000000000000000000000000000000000000000000000000000000600052602160045260246000fd5b82600381111561062e577f4e487b7100000000000000000000000000000000000000000000000000000000600052602160045260246000fd5b145b61066f576040517f08c379a0000000000000000000000000000000000000000000000000000000008152600401610666906146de565b60405180910390fd5b600260038111156106a9577f4e487b7100000000000000000000000000000000000000000000000000000000600052602160045260246000fd5b600160003373ffffffffffffffffffffffffffffffffffffffff1673ffffffffffffffffffffffffffffffffffffffff16815260200190815260200160002060008573ffffffffffffffffffffffffffffffffffffffff1673ffffffffffffffffffffffffffffffffffffffff16815260200190815260200160002060020160019054906101000a900460ff16600381111561076e577f4e487b7100000000000000000000000000000000000000000000000000000000600052602160045260246000fd5b146107ae576040517f08c379a00000000000000000000000000000000000000000000000000000000081526004016107a59061471e565b60405180910390fd5b600160003373ffffffffffffffffffffffffffffffffffffffff1673ffffffffffffffffffffffffffffffffffffffff16815260200190815260200160002060008473ffffffffffffffffffffffffffffffffffffffff1673ffffffffffffffffffffffffffffffffffffffff1681526020019081526020016000206001015433838360405160200161084393929190614569565b6040516020818303038152906040528051906020012014610899576040517f08c379a00000000000000000000000000000000000000000000000000000000081526004016108909061477e565b60405180910390fd5b60008260038111156108d4577f4e487b7100000000000000000000000000000000000000000000000000000000600052602160045260246000fd5b600160003373ffffffffffffffffffffffffffffffffffffffff1673ffffffffffffffffffffffffffffffffffffffff16815260200190815260200160002060008673ffffffffffffffffffffffffffffffffffffffff1673ffffffffffffffffffffffffffffffffffffffff16815260200190815260200160002060020160009054906101000a900460ff166003811115610999577f4e487b7100000000000000000000000000000000000000000000000000000000600052602160045260246000fd5b1415610b2e57600160003373ffffffffffffffffffffffffffffffffffffffff1673ffffffffffffffffffffffffffffffffffffffff16815260200190815260200160002060008573ffffffffffffffffffffffffffffffffffffffff1673ffffffffffffffffffffffffffffffffffffffff16815260200190815260200160002060030154600260003373ffffffffffffffffffffffffffffffffffffffff1673ffffffffffffffffffffffffffffffffffffffff16815260200190815260200160002081905550600160003373ffffffffffffffffffffffffffffffffffffffff1673ffffffffffffffffffffffffffffffffffffffff16815260200190815260200160002060008573ffffffffffffffffffffffffffffffffffffffff1673ffffffffffffffffffffffffffffffffffffffff16815260200190815260200160002060030154600260008673ffffffffffffffffffffffffffffffffffffffff1673ffffffffffffffffffffffffffffffffffffffff1681526020019081526020016000208190555060009050611e75565b60016003811115610b68577f4e487b7100000000000000000000000000000000000000000000000000000000600052602160045260246000fd5b836003811115610ba1577f4e487b7100000000000000000000000000000000000000000000000000000000600052602160045260246000fd5b141561119b5760026003811115610be1577f4e487b7100000000000000000000000000000000000000000000000000000000600052602160045260246000fd5b600160003373ffffffffffffffffffffffffffffffffffffffff1673ffffffffffffffffffffffffffffffffffffffff16815260200190815260200160002060008673ffffffffffffffffffffffffffffffffffffffff1673ffffffffffffffffffffffffffffffffffffffff16815260200190815260200160002060020160009054906101000a900460ff166003811115610ca6577f4e487b7100000000000000000000000000000000000000000000000000000000600052602160045260246000fd5b1480610dad5750600380811115610ce6577f4e487b7100000000000000000000000000000000000000000000000000000000600052602160045260246000fd5b600160003373ffffffffffffffffffffffffffffffffffffffff1673ffffffffffffffffffffffffffffffffffffffff16815260200190815260200160002060008673ffffffffffffffffffffffffffffffffffffffff1673ffffffffffffffffffffffffffffffffffffffff16815260200190815260200160002060020160009054906101000a900460ff166003811115610dab577f4e487b7100000000000000000000000000000000000000000000000000000000600052602160045260246000fd5b145b610de0577f4e487b7100000000000000000000000000000000000000000000000000000000600052600160045260246000fd5b60026003811115610e1a577f4e487b7100000000000000000000000000000000000000000000000000000000600052602160045260246000fd5b600160003373ffffffffffffffffffffffffffffffffffffffff1673ffffffffffffffffffffffffffffffffffffffff16815260200190815260200160002060008673ffffffffffffffffffffffffffffffffffffffff1673ffffffffffffffffffffffffffffffffffffffff16815260200190815260200160002060020160009054906101000a900460ff166003811115610edf577f4e487b7100000000000000000000000000000000000000000000000000000000600052602160045260246000fd5b1415610fbd576002600160003373ffffffffffffffffffffffffffffffffffffffff1673ffffffffffffffffffffffffffffffffffffffff16815260200190815260200160002060008673ffffffffffffffffffffffffffffffffffffffff1673ffffffffffffffffffffffffffffffffffffffff16815260200190815260200160002060030154610f7191906148ac565b600260008673ffffffffffffffffffffffffffffffffffffffff1673ffffffffffffffffffffffffffffffffffffffff1681526020019081526020016000208190555060029050611196565b600380811115610ff6577f4e487b7100000000000000000000000000000000000000000000000000000000600052602160045260246000fd5b600160003373ffffffffffffffffffffffffffffffffffffffff1673ffffffffffffffffffffffffffffffffffffffff16815260200190815260200160002060008673ffffffffffffffffffffffffffffffffffffffff1673ffffffffffffffffffffffffffffffffffffffff16815260200190815260200160002060020160009054906101000a900460ff1660038111156110bb577f4e487b7100000000000000000000000000000000000000000000000000000000600052602160045260246000fd5b1415611195576002600160003373ffffffffffffffffffffffffffffffffffffffff1673ffffffffffffffffffffffffffffffffffffffff16815260200190815260200160002060008673ffffffffffffffffffffffffffffffffffffffff1673ffffffffffffffffffffffffffffffffffffffff1681526020019081526020016000206003015461114d91906148ac565b600260003373ffffffffffffffffffffffffffffffffffffffff1673ffffffffffffffffffffffffffffffffffffffff16815260200190815260200160002081905550600190505b5b611e74565b600260038111156111d5577f4e487b7100000000000000000000000000000000000000000000000000000000600052602160045260246000fd5b83600381111561120e577f4e487b7100000000000000000000000000000000000000000000000000000000600052602160045260246000fd5b1415611808576001600381111561124e577f4e487b7100000000000000000000000000000000000000000000000000000000600052602160045260246000fd5b600160003373ffffffffffffffffffffffffffffffffffffffff1673ffffffffffffffffffffffffffffffffffffffff16815260200190815260200160002060008673ffffffffffffffffffffffffffffffffffffffff1673ffffffffffffffffffffffffffffffffffffffff16815260200190815260200160002060020160009054906101000a900460ff166003811115611313577f4e487b7100000000000000000000000000000000000000000000000000000000600052602160045260246000fd5b148061141a5750600380811115611353577f4e487b7100000000000000000000000000000000000000000000000000000000600052602160045260246000fd5b600160003373ffffffffffffffffffffffffffffffffffffffff1673ffffffffffffffffffffffffffffffffffffffff16815260200190815260200160002060008673ffffffffffffffffffffffffffffffffffffffff1673ffffffffffffffffffffffffffffffffffffffff16815260200190815260200160002060020160009054906101000a900460ff166003811115611418577f4e487b7100000000000000000000000000000000000000000000000000000000600052602160045260246000fd5b145b61144d577f4e487b7100000000000000000000000000000000000000000000000000000000600052600160045260246000fd5b60016003811115611487577f4e487b7100000000000000000000000000000000000000000000000000000000600052602160045260246000fd5b600160003373ffffffffffffffffffffffffffffffffffffffff1673ffffffffffffffffffffffffffffffffffffffff16815260200190815260200160002060008673ffffffffffffffffffffffffffffffffffffffff1673ffffffffffffffffffffffffffffffffffffffff16815260200190815260200160002060020160009054906101000a900460ff16600381111561154c577f4e487b7100000000000000000000000000000000000000000000000000000000600052602160045260246000fd5b141561162a576002600160003373ffffffffffffffffffffffffffffffffffffffff1673ffffffffffffffffffffffffffffffffffffffff16815260200190815260200160002060008673ffffffffffffffffffffffffffffffffffffffff1673ffffffffffffffffffffffffffffffffffffffff168152602001908152602001600020600301546115de91906148ac565b600260003373ffffffffffffffffffffffffffffffffffffffff1673ffffffffffffffffffffffffffffffffffffffff1681526020019081526020016000208190555060019050611803565b600380811115611663577f4e487b7100000000000000000000000000000000000000000000000000000000600052602160045260246000fd5b600160003373ffffffffffffffffffffffffffffffffffffffff1673ffffffffffffffffffffffffffffffffffffffff16815260200190815260200160002060008673ffffffffffffffffffffffffffffffffffffffff1673ffffffffffffffffffffffffffffffffffffffff16815260200190815260200160002060020160009054906101000a900460ff166003811115611728577f4e487b7100000000000000000000000000000000000000000000000000000000600052602160045260246000fd5b1415611802576002600160003373ffffffffffffffffffffffffffffffffffffffff1673ffffffffffffffffffffffffffffffffffffffff16815260200190815260200160002060008673ffffffffffffffffffffffffffffffffffffffff1673ffffffffffffffffffffffffffffffffffffffff168152602001908152602001600020600301546117ba91906148ac565b600260008673ffffffffffffffffffffffffffffffffffffffff1673ffffffffffffffffffffffffffffffffffffffff16815260200190815260200160002081905550600290505b5b611e73565b600380811115611841577f4e487b7100000000000000000000000000000000000000000000000000000000600052602160045260246000fd5b83600381111561187a577f4e487b7100000000000000000000000000000000000000000000000000000000600052602160045260246000fd5b1415611e7257600160038111156118ba577f4e487b7100000000000000000000000000000000000000000000000000000000600052602160045260246000fd5b600160003373ffffffffffffffffffffffffffffffffffffffff1673ffffffffffffffffffffffffffffffffffffffff16815260200190815260200160002060008673ffffffffffffffffffffffffffffffffffffffff1673ffffffffffffffffffffffffffffffffffffffff16815260200190815260200160002060020160009054906101000a900460ff16600381111561197f577f4e487b7100000000000000000000000000000000000000000000000000000000600052602160045260246000fd5b1480611a875750600260038111156119c0577f4e487b7100000000000000000000000000000000000000000000000000000000600052602160045260246000fd5b600160003373ffffffffffffffffffffffffffffffffffffffff1673ffffffffffffffffffffffffffffffffffffffff16815260200190815260200160002060008673ffffffffffffffffffffffffffffffffffffffff1673ffffffffffffffffffffffffffffffffffffffff16815260200190815260200160002060020160009054906101000a900460ff166003811115611a85577f4e487b7100000000000000000000000000000000000000000000000000000000600052602160045260246000fd5b145b611aba577f4e487b7100000000000000000000000000000000000000000000000000000000600052600160045260246000fd5b60016003811115611af4577f4e487b7100000000000000000000000000000000000000000000000000000000600052602160045260246000fd5b600160003373ffffffffffffffffffffffffffffffffffffffff1673ffffffffffffffffffffffffffffffffffffffff16815260200190815260200160002060008673ffffffffffffffffffffffffffffffffffffffff1673ffffffffffffffffffffffffffffffffffffffff16815260200190815260200160002060020160009054906101000a900460ff166003811115611bb9577f4e487b7100000000000000000000000000000000000000000000000000000000600052602160045260246000fd5b1415611c97576002600160003373ffffffffffffffffffffffffffffffffffffffff1673ffffffffffffffffffffffffffffffffffffffff16815260200190815260200160002060008673ffffffffffffffffffffffffffffffffffffffff1673ffffffffffffffffffffffffffffffffffffffff16815260200190815260200160002060030154611c4b91906148ac565b600260008673ffffffffffffffffffffffffffffffffffffffff1673ffffffffffffffffffffffffffffffffffffffff1681526020019081526020016000208190555060029050611e71565b60026003811115611cd1577f4e487b7100000000000000000000000000000000000000000000000000000000600052602160045260246000fd5b600160003373ffffffffffffffffffffffffffffffffffffffff1673ffffffffffffffffffffffffffffffffffffffff16815260200190815260200160002060008673ffffffffffffffffffffffffffffffffffffffff1673ffffffffffffffffffffffffffffffffffffffff16815260200190815260200160002060020160009054906101000a900460ff166003811115611d96577f4e487b7100000000000000000000000000000000000000000000000000000000600052602160045260246000fd5b1415611e70576002600160003373ffffffffffffffffffffffffffffffffffffffff1673ffffffffffffffffffffffffffffffffffffffff16815260200190815260200160002060008673ffffffffffffffffffffffffffffffffffffffff1673ffffffffffffffffffffffffffffffffffffffff16815260200190815260200160002060030154611e2891906148ac565b600260003373ffffffffffffffffffffffffffffffffffffffff1673ffffffffffffffffffffffffffffffffffffffff16815260200190815260200160002081905550600190505b5b5b5b5b5b6003600160003373ffffffffffffffffffffffffffffffffffffffff1673ffffffffffffffffffffffffffffffffffffffff16815260200190815260200160002060008673ffffffffffffffffffffffffffffffffffffffff1673ffffffffffffffffffffffffffffffffffffffff16815260200190815260200160002060020160016101000a81548160ff02191690836003811115611f3e577f4e487b7100000000000000000000000000000000000000000000000000000000600052602160045260246000fd5b02179055507f8127239df4471ad00d415222789f6b16cd835ec62b32c1885455b8b7f18f4e59338585600160003373ffffffffffffffffffffffffffffffffffffffff1673ffffffffffffffffffffffffffffffffffffffff16815260200190815260200160002060008973ffffffffffffffffffffffffffffffffffffffff1673ffffffffffffffffffffffffffffffffffffffff16815260200190815260200160002060020160009054906101000a900460ff16600160003373ffffffffffffffffffffffffffffffffffffffff1673ffffffffffffffffffffffffffffffffffffffff16815260200190815260200160002060008a73ffffffffffffffffffffffffffffffffffffffff1673ffffffffffffffffffffffffffffffffffffffff1681526020019081526020016000206003015486604051612087969594939291906145cb565b60405180910390a150505050565b60003383836040516020016120ac93929190614569565b60405160208183030381529060405280519060200120905092915050565b60016003811115612104577f4e487b7100000000000000000000000000000000000000000000000000000000600052602160045260246000fd5b82600381111561213d577f4e487b7100000000000000000000000000000000000000000000000000000000600052602160045260246000fd5b14806121b957506002600381111561217e577f4e487b7100000000000000000000000000000000000000000000000000000000600052602160045260246000fd5b8260038111156121b7577f4e487b7100000000000000000000000000000000000000000000000000000000600052602160045260246000fd5b145b8061223357506003808111156121f8577f4e487b7100000000000000000000000000000000000000000000000000000000600052602160045260246000fd5b826003811115612231577f4e487b7100000000000000000000000000000000000000000000000000000000600052602160045260246000fd5b145b612272576040517f08c379a0000000000000000000000000000000000000000000000000000000008152600401612269906146de565b60405180910390fd5b600160038111156122ac577f4e487b7100000000000000000000000000000000000000000000000000000000600052602160045260246000fd5b600160008573ffffffffffffffffffffffffffffffffffffffff1673ffffffffffffffffffffffffffffffffffffffff16815260200190815260200160002060003373ffffffffffffffffffffffffffffffffffffffff1673ffffffffffffffffffffffffffffffffffffffff16815260200190815260200160002060020160019054906101000a900460ff166003811115612371577f4e487b7100000000000000000000000000000000000000000000000000000000600052602160045260246000fd5b146123b1576040517f08c379a00000000000000000000000000000000000000000000000000000000081526004016123a89061471e565b60405180910390fd5b6000600160008573ffffffffffffffffffffffffffffffffffffffff1673ffffffffffffffffffffffffffffffffffffffff16815260200190815260200160002060003373ffffffffffffffffffffffffffffffffffffffff1673ffffffffffffffffffffffffffffffffffffffff16815260200190815260200160002060030154118015612444575060001515811515145b156126f05760008060009054906101000a900473ffffffffffffffffffffffffffffffffffffffff1673ffffffffffffffffffffffffffffffffffffffff1663dd62ed3e33306040518363ffffffff1660e01b81526004016124a79291906145a2565b60206040518083038186803b1580156124bf57600080fd5b505afa1580156124d3573d6000803e3d6000fd5b505050506040513d601f19601f820116820180604052508101906124f7919061432f565b9050600160008573ffffffffffffffffffffffffffffffffffffffff1673ffffffffffffffffffffffffffffffffffffffff16815260200190815260200160002060003373ffffffffffffffffffffffffffffffffffffffff1673ffffffffffffffffffffffffffffffffffffffff168152602001908152602001600020600301548110156125bb576040517f08c379a00000000000000000000000000000000000000000000000000000000081526004016125b29061475e565b60405180910390fd5b60008054906101000a900473ffffffffffffffffffffffffffffffffffffffff1673ffffffffffffffffffffffffffffffffffffffff166323b872dd3330600160008973ffffffffffffffffffffffffffffffffffffffff1673ffffffffffffffffffffffffffffffffffffffff16815260200190815260200160002060003373ffffffffffffffffffffffffffffffffffffffff1673ffffffffffffffffffffffffffffffffffffffff168152602001908152602001600020600301546040518463ffffffff1660e01b815260040161269793929190614663565b602060405180830381600087803b1580156126b157600080fd5b505af11580156126c5573d6000803e3d6000fd5b505050506040513d601f19601f820116820180604052508101906126e991906142b2565b5050612be2565b6000600160008573ffffffffffffffffffffffffffffffffffffffff1673ffffffffffffffffffffffffffffffffffffffff16815260200190815260200160002060003373ffffffffffffffffffffffffffffffffffffffff1673ffffffffffffffffffffffffffffffffffffffff16815260200190815260200160002060030154118015612783575060011515811515145b15612be157600260003373ffffffffffffffffffffffffffffffffffffffff1673ffffffffffffffffffffffffffffffffffffffff16815260200190815260200160002054600160008573ffffffffffffffffffffffffffffffffffffffff1673ffffffffffffffffffffffffffffffffffffffff16815260200190815260200160002060003373ffffffffffffffffffffffffffffffffffffffff1673ffffffffffffffffffffffffffffffffffffffff168152602001908152602001600020600301541161292757600160008473ffffffffffffffffffffffffffffffffffffffff1673ffffffffffffffffffffffffffffffffffffffff16815260200190815260200160002060003373ffffffffffffffffffffffffffffffffffffffff1673ffffffffffffffffffffffffffffffffffffffff16815260200190815260200160002060030154600260003373ffffffffffffffffffffffffffffffffffffffff1673ffffffffffffffffffffffffffffffffffffffff168152602001908152602001600020600082825461291b9190614906565b92505081905550612be0565b6000600260003373ffffffffffffffffffffffffffffffffffffffff1673ffffffffffffffffffffffffffffffffffffffff16815260200190815260200160002054600160008673ffffffffffffffffffffffffffffffffffffffff1673ffffffffffffffffffffffffffffffffffffffff16815260200190815260200160002060003373ffffffffffffffffffffffffffffffffffffffff1673ffffffffffffffffffffffffffffffffffffffff168152602001908152602001600020600301546129f39190614906565b905060008060009054906101000a900473ffffffffffffffffffffffffffffffffffffffff1673ffffffffffffffffffffffffffffffffffffffff1663dd62ed3e33306040518363ffffffff1660e01b8152600401612a539291906145a2565b60206040518083038186803b158015612a6b57600080fd5b505afa158015612a7f573d6000803e3d6000fd5b505050506040513d601f19601f82011682018060405250810190612aa3919061432f565b905081811015612ae8576040517f08c379a0000000000000000000000000000000000000000000000000000000008152600401612adf9061475e565b60405180910390fd5b6000600260003373ffffffffffffffffffffffffffffffffffffffff1673ffffffffffffffffffffffffffffffffffffffff1681526020019081526020016000208190555060008054906101000a900473ffffffffffffffffffffffffffffffffffffffff1673ffffffffffffffffffffffffffffffffffffffff166323b872dd3330856040518463ffffffff1660e01b8152600401612b8a93929190614663565b602060405180830381600087803b158015612ba457600080fd5b505af1158015612bb8573d6000803e3d6000fd5b505050506040513d601f19601f82011682018060405250810190612bdc91906142b2565b5050505b5b5b81600160008573ffffffffffffffffffffffffffffffffffffffff1673ffffffffffffffffffffffffffffffffffffffff16815260200190815260200160002060003373ffffffffffffffffffffffffffffffffffffffff1673ffffffffffffffffffffffffffffffffffffffff16815260200190815260200160002060020160006101000a81548160ff02191690836003811115612caa577f4e487b7100000000000000000000000000000000000000000000000000000000600052602160045260246000fd5b02179055506201518042612cbe9190614856565b600160008573ffffffffffffffffffffffffffffffffffffffff1673ffffffffffffffffffffffffffffffffffffffff16815260200190815260200160002060003373ffffffffffffffffffffffffffffffffffffffff1673ffffffffffffffffffffffffffffffffffffffff168152602001908152602001600020600001819055506002600160008573ffffffffffffffffffffffffffffffffffffffff1673ffffffffffffffffffffffffffffffffffffffff16815260200190815260200160002060003373ffffffffffffffffffffffffffffffffffffffff1673ffffffffffffffffffffffffffffffffffffffff16815260200190815260200160002060020160016101000a81548160ff02191690836003811115612e0a577f4e487b7100000000000000000000000000000000000000000000000000000000600052602160045260246000fd5b02179055507fb3e2a0cd42680f88061aed3939d78eb883abaff233660107ae42894a202027dd8333600160008773ffffffffffffffffffffffffffffffffffffffff1673ffffffffffffffffffffffffffffffffffffffff16815260200190815260200160002060003373ffffffffffffffffffffffffffffffffffffffff1673ffffffffffffffffffffffffffffffffffffffff16815260200190815260200160002060000154604051612ec193929190614663565b60405180910390a1505050565b6000600260003373ffffffffffffffffffffffffffffffffffffffff1673ffffffffffffffffffffffffffffffffffffffff1681526020019081526020016000205411612f50576040517f08c379a0000000000000000000000000000000000000000000000000000000008152600401612f47906146fe565b60405180910390fd5b6000600260003373ffffffffffffffffffffffffffffffffffffffff1673ffffffffffffffffffffffffffffffffffffffff1681526020019081526020016000208190555060008054906101000a900473ffffffffffffffffffffffffffffffffffffffff1673ffffffffffffffffffffffffffffffffffffffff1663a9059cbb33600260003373ffffffffffffffffffffffffffffffffffffffff1673ffffffffffffffffffffffffffffffffffffffff168152602001908152602001600020546040518363ffffffff1660e01b815260040161302f92919061469a565b602060405180830381600087803b15801561304957600080fd5b505af115801561305d573d6000803e3d6000fd5b505050506040513d601f19601f8201168201806040525081019061308191906142b2565b50565b600060038111156130be577f4e487b7100000000000000000000000000000000000000000000000000000000600052602160045260246000fd5b600160008473ffffffffffffffffffffffffffffffffffffffff1673ffffffffffffffffffffffffffffffffffffffff16815260200190815260200160002060003373ffffffffffffffffffffffffffffffffffffffff1673ffffffffffffffffffffffffffffffffffffffff16815260200190815260200160002060020160019054906101000a900460ff166003811115613183577f4e487b7100000000000000000000000000000000000000000000000000000000600052602160045260246000fd5b148061328a57506003808111156131c3577f4e487b7100000000000000000000000000000000000000000000000000000000600052602160045260246000fd5b600160008473ffffffffffffffffffffffffffffffffffffffff1673ffffffffffffffffffffffffffffffffffffffff16815260200190815260200160002060003373ffffffffffffffffffffffffffffffffffffffff1673ffffffffffffffffffffffffffffffffffffffff16815260200190815260200160002060020160019054906101000a900460ff166003811115613288577f4e487b7100000000000000000000000000000000000000000000000000000000600052602160045260246000fd5b145b6132c9576040517f08c379a00000000000000000000000000000000000000000000000000000000081526004016132c09061479e565b60405180910390fd5b60006003811115613303577f4e487b7100000000000000000000000000000000000000000000000000000000600052602160045260246000fd5b600160003373ffffffffffffffffffffffffffffffffffffffff1673ffffffffffffffffffffffffffffffffffffffff16815260200190815260200160002060008473ffffffffffffffffffffffffffffffffffffffff1673ffffffffffffffffffffffffffffffffffffffff16815260200190815260200160002060020160019054906101000a900460ff1660038111156133c8577f4e487b7100000000000000000000000000000000000000000000000000000000600052602160045260246000fd5b14806134cf5750600380811115613408577f4e487b7100000000000000000000000000000000000000000000000000000000600052602160045260246000fd5b600160003373ffffffffffffffffffffffffffffffffffffffff1673ffffffffffffffffffffffffffffffffffffffff16815260200190815260200160002060008473ffffffffffffffffffffffffffffffffffffffff1673ffffffffffffffffffffffffffffffffffffffff16815260200190815260200160002060020160019054906101000a900460ff1660038111156134cd577f4e487b7100000000000000000000000000000000000000000000000000000000600052602160045260246000fd5b145b61350e576040517f08c379a00000000000000000000000000000000000000000000000000000000081526004016135059061479e565b60405180910390fd5b600084118015613522575060001515831515145b156136d05760008060009054906101000a900473ffffffffffffffffffffffffffffffffffffffff1673ffffffffffffffffffffffffffffffffffffffff1663dd62ed3e33306040518363ffffffff1660e01b81526004016135859291906145a2565b60206040518083038186803b15801561359d57600080fd5b505afa1580156135b1573d6000803e3d6000fd5b505050506040513d601f19601f820116820180604052508101906135d5919061432f565b90508481101561361a576040517f08c379a00000000000000000000000000000000000000000000000000000000081526004016136119061475e565b60405180910390fd5b60008054906101000a900473ffffffffffffffffffffffffffffffffffffffff1673ffffffffffffffffffffffffffffffffffffffff166323b872dd3330886040518463ffffffff1660e01b815260040161367793929190614663565b602060405180830381600087803b15801561369157600080fd5b505af11580156136a5573d6000803e3d6000fd5b505050506040513d601f19601f820116820180604052508101906136c991906142b2565b50506139c6565b6000841180156136e4575060011515831515145b156139c557600260003373ffffffffffffffffffffffffffffffffffffffff1673ffffffffffffffffffffffffffffffffffffffff16815260200190815260200160002054841161378a5783600260003373ffffffffffffffffffffffffffffffffffffffff1673ffffffffffffffffffffffffffffffffffffffff168152602001908152602001600020600082825461377e9190614906565b925050819055506139c4565b6000600260003373ffffffffffffffffffffffffffffffffffffffff1673ffffffffffffffffffffffffffffffffffffffff16815260200190815260200160002054856137d79190614906565b905060008060009054906101000a900473ffffffffffffffffffffffffffffffffffffffff1673ffffffffffffffffffffffffffffffffffffffff1663dd62ed3e33306040518363ffffffff1660e01b81526004016138379291906145a2565b60206040518083038186803b15801561384f57600080fd5b505afa158015613863573d6000803e3d6000fd5b505050506040513d601f19601f82011682018060405250810190613887919061432f565b9050818110156138cc576040517f08c379a00000000000000000000000000000000000000000000000000000000081526004016138c39061475e565b60405180910390fd5b6000600260003373ffffffffffffffffffffffffffffffffffffffff1673ffffffffffffffffffffffffffffffffffffffff1681526020019081526020016000208190555060008054906101000a900473ffffffffffffffffffffffffffffffffffffffff1673ffffffffffffffffffffffffffffffffffffffff166323b872dd3330856040518463ffffffff1660e01b815260040161396e93929190614663565b602060405180830381600087803b15801561398857600080fd5b505af115801561399c573d6000803e3d6000fd5b505050506040513d601f19601f820116820180604052508101906139c091906142b2565b5050505b5b5b6040518060a001604052806000815260200182815260200160006003811115613a18577f4e487b7100000000000000000000000000000000000000000000000000000000600052602160045260246000fd5b815260200160016003811115613a57577f4e487b7100000000000000000000000000000000000000000000000000000000600052602160045260246000fd5b815260200185815250600160003373ffffffffffffffffffffffffffffffffffffffff1673ffffffffffffffffffffffffffffffffffffffff16815260200190815260200160002060008473ffffffffffffffffffffffffffffffffffffffff1673ffffffffffffffffffffffffffffffffffffffff168152602001908152602001600020600082015181600001556020820151816001015560408201518160020160006101000a81548160ff02191690836003811115613b41577f4e487b7100000000000000000000000000000000000000000000000000000000600052602160045260246000fd5b021790555060608201518160020160016101000a81548160ff02191690836003811115613b97577f4e487b7100000000000000000000000000000000000000000000000000000000600052602160045260246000fd5b0217905550608082015181600301559050507f518c867a5f2c94adaf72839e5c89a16d95c40ba53e58bfcd7cee5bbf3d6c67cd338386604051613bdc93929190614663565b60405180910390a150505050565b60026003811115613c24577f4e487b7100000000000000000000000000000000000000000000000000000000600052602160045260246000fd5b600160008373ffffffffffffffffffffffffffffffffffffffff1673ffffffffffffffffffffffffffffffffffffffff16815260200190815260200160002060003373ffffffffffffffffffffffffffffffffffffffff1673ffffffffffffffffffffffffffffffffffffffff16815260200190815260200160002060020160019054906101000a900460ff166003811115613ce9577f4e487b7100000000000000000000000000000000000000000000000000000000600052602160045260246000fd5b14613d29576040517f08c379a0000000000000000000000000000000000000000000000000000000008152600401613d209061471e565b60405180910390fd5b42600160008373ffffffffffffffffffffffffffffffffffffffff1673ffffffffffffffffffffffffffffffffffffffff16815260200190815260200160002060003373ffffffffffffffffffffffffffffffffffffffff1673ffffffffffffffffffffffffffffffffffffffff1681526020019081526020016000206000015410613dea576040517f08c379a0000000000000000000000000000000000000000000000000000000008152600401613de19061473e565b60405180910390fd5b6002600160008373ffffffffffffffffffffffffffffffffffffffff1673ffffffffffffffffffffffffffffffffffffffff16815260200190815260200160002060003373ffffffffffffffffffffffffffffffffffffffff1673ffffffffffffffffffffffffffffffffffffffff16815260200190815260200160002060030154613e7691906148ac565b600260003373ffffffffffffffffffffffffffffffffffffffff1673ffffffffffffffffffffffffffffffffffffffff168152602001908152602001600020819055506003600160008373ffffffffffffffffffffffffffffffffffffffff1673ffffffffffffffffffffffffffffffffffffffff16815260200190815260200160002060003373ffffffffffffffffffffffffffffffffffffffff1673ffffffffffffffffffffffffffffffffffffffff16815260200190815260200160002060020160016101000a81548160ff02191690836003811115613f82577f4e487b7100000000000000000000000000000000000000000000000000000000600052602160045260246000fd5b02179055507f8127239df4471ad00d415222789f6b16cd835ec62b32c1885455b8b7f18f4e5981336000600160003373ffffffffffffffffffffffffffffffffffffffff1673ffffffffffffffffffffffffffffffffffffffff16815260200190815260200160002060008673ffffffffffffffffffffffffffffffffffffffff1673ffffffffffffffffffffffffffffffffffffffff16815260200190815260200160002060020160009054906101000a900460ff16600160003373ffffffffffffffffffffffffffffffffffffffff1673ffffffffffffffffffffffffffffffffffffffff16815260200190815260200160002060008773ffffffffffffffffffffffffffffffffffffffff1673ffffffffffffffffffffffffffffffffffffffff1681526020019081526020016000206003015460026040516140cd969594939291906145cb565b60405180910390a150565b60006140eb6140e6846147fe565b6147d9565b90508281526020810184848401111561410357600080fd5b61410e8482856149fb565b509392505050565b60008135905061412581614d75565b92915050565b60008135905061413a81614d8c565b92915050565b60008151905061414f81614d8c565b92915050565b60008135905061416481614da3565b92915050565b60008135905061417981614dba565b92915050565b600082601f83011261419057600080fd5b81356141a08482602086016140d8565b91505092915050565b6000813590506141b881614dca565b92915050565b6000815190506141cd81614dca565b92915050565b6000602082840312156141e557600080fd5b60006141f384828501614116565b91505092915050565b60008060006060848603121561421157600080fd5b600061421f86828701614116565b93505060206142308682870161416a565b92505060406142418682870161412b565b9150509250925092565b60008060006060848603121561426057600080fd5b600061426e86828701614116565b935050602061427f8682870161416a565b925050604084013567ffffffffffffffff81111561429c57600080fd5b6142a88682870161417f565b9150509250925092565b6000602082840312156142c457600080fd5b60006142d284828501614140565b91505092915050565b600080604083850312156142ee57600080fd5b60006142fc8582860161416a565b925050602083013567ffffffffffffffff81111561431957600080fd5b6143258582860161417f565b9150509250929050565b60006020828403121561434157600080fd5b600061434f848285016141be565b91505092915050565b6000806000806080858703121561436e57600080fd5b600061437c878288016141a9565b945050602061438d8782880161412b565b935050604061439e87828801614116565b92505060606143af87828801614155565b91505092959194509250565b6143c48161493a565b82525050565b6143db6143d68261493a565b614a6e565b82525050565b6143ea81614958565b82525050565b6143f9816149c5565b82525050565b61441061440b826149c5565b614a92565b82525050565b61441f816149d7565b82525050565b61442e816149e9565b82525050565b600061443f8261482f565b614449818561484b565b9350614459818560208601614a0a565b80840191505092915050565b600061447260298361483a565b915061447d82614b5c565b604082019050919050565b600061449560138361483a565b91506144a082614bab565b602082019050919050565b60006144b860258361483a565b91506144c382614bd4565b604082019050919050565b60006144db60238361483a565b91506144e682614c23565b604082019050919050565b60006144fe60358361483a565b915061450982614c72565b604082019050919050565b600061452160138361483a565b915061452c82614cc1565b602082019050919050565b600061454460328361483a565b915061454f82614cea565b604082019050919050565b614563816149bb565b82525050565b600061457582866143ca565b60148201915061458582856143ff565b6001820191506145958284614434565b9150819050949350505050565b60006040820190506145b760008301856143bb565b6145c460208301846143bb565b9392505050565b600060c0820190506145e060008301896143bb565b6145ed60208301886143bb565b6145fa60408301876143f0565b61460760608301866143f0565b614614608083018561455a565b61462160a0830184614416565b979650505050505050565b600060608201905061464160008301866143bb565b61464e60208301856143bb565b61465b6040830184614425565b949350505050565b600060608201905061467860008301866143bb565b61468560208301856143bb565b614692604083018461455a565b949350505050565b60006040820190506146af60008301856143bb565b6146bc602083018461455a565b9392505050565b60006020820190506146d860008301846143e1565b92915050565b600060208201905081810360008301526146f781614465565b9050919050565b6000602082019050818103600083015261471781614488565b9050919050565b60006020820190508181036000830152614737816144ab565b9050919050565b60006020820190508181036000830152614757816144ce565b9050919050565b60006020820190508181036000830152614777816144f1565b9050919050565b6000602082019050818103600083015261479781614514565b9050919050565b600060208201905081810360008301526147b781614537565b9050919050565b60006020820190506147d3600083018461455a565b92915050565b60006147e36147f4565b90506147ef8282614a3d565b919050565b6000604051905090565b600067ffffffffffffffff82111561481957614818614b02565b5b61482282614b31565b9050602081019050919050565b600081519050919050565b600082825260208201905092915050565b600081905092915050565b6000614861826149bb565b915061486c836149bb565b9250827fffffffffffffffffffffffffffffffffffffffffffffffffffffffffffffffff038211156148a1576148a0614aa4565b5b828201905092915050565b60006148b7826149bb565b91506148c2836149bb565b9250817fffffffffffffffffffffffffffffffffffffffffffffffffffffffffffffffff04831182151516156148fb576148fa614aa4565b5b828202905092915050565b6000614911826149bb565b915061491c836149bb565b92508282101561492f5761492e614aa4565b5b828203905092915050565b60006149458261499b565b9050919050565b60008115159050919050565b6000819050919050565b600081905061497082614d39565b919050565b600081905061498382614d4d565b919050565b600081905061499682614d61565b919050565b600073ffffffffffffffffffffffffffffffffffffffff82169050919050565b6000819050919050565b60006149d082614962565b9050919050565b60006149e282614975565b9050919050565b60006149f482614988565b9050919050565b82818337600083830152505050565b60005b83811015614a28578082015181840152602081019050614a0d565b83811115614a37576000848401525b50505050565b614a4682614b31565b810181811067ffffffffffffffff82111715614a6557614a64614b02565b5b80604052505050565b6000614a7982614a80565b9050919050565b6000614a8b82614b4f565b9050919050565b6000614a9d82614b42565b9050919050565b7f4e487b7100000000000000000000000000000000000000000000000000000000600052601160045260246000fd5b7f4e487b7100000000000000000000000000000000000000000000000000000000600052602160045260246000fd5b7f4e487b7100000000000000000000000000000000000000000000000000000000600052604160045260246000fd5b6000601f19601f8301169050919050565b60008160f81b9050919050565b60008160601b9050919050565b7f53656c656374696f6e206d75737420626520524f434b2c205041504552206f7260008201527f2053434953534f52530000000000000000000000000000000000000000000000602082015250565b7f596f75722077696e6e696e677320617265203000000000000000000000000000600082015250565b7f5468652067616d65206973206e6f7420696e2074686520636f7272656374207360008201527f7461747573000000000000000000000000000000000000000000000000000000602082015250565b7f4c696d69742074696d656c696e6520686173206e6f74206265656e207265616360008201527f6865640000000000000000000000000000000000000000000000000000000000602082015250565b7f54686520616c6c6f77616e6365206973206e6f7420656e6f75676820666f722060008201527f74686973206265742e20506c6561736520726973650000000000000000000000602082015250565b7f546865206861736820697320696e76616c696400000000000000000000000000600082015250565b7f596f7520616c7265616479206861766520612067616d65206f6e676f696e672060008201527f776974682074686973206f70706f6e656e740000000000000000000000000000602082015250565b60048110614d4a57614d49614ad3565b5b50565b60038110614d5e57614d5d614ad3565b5b50565b60048110614d7257614d71614ad3565b5b50565b614d7e8161493a565b8114614d8957600080fd5b50565b614d958161494c565b8114614da057600080fd5b50565b614dac81614958565b8114614db757600080fd5b50565b60048110614dc757600080fd5b50565b614dd3816149bb565b8114614dde57600080fd5b5056fea2646970667358221220cd29a525a09b28414cf24afd12f3bd57043f930002aff767eea297401be3f40064736f6c63430008040033",
  "linkReferences": {},
  "deployedLinkReferences": {}
}